S01000004443204D4F544F522E73726563DC
S11300000C9434000C943E000C943E000C943E007E
S11300100C943E000C943E000C943E000C943E0064
S11300200C943E000C943E000C943E000C943E0054
S11300300C943E000C943E000C943E000C943E0044
S11300400C943E000C943E000C943E000C943E0034
S11300500C943E000C943E000C943E000C943E0024
S11300600C943E000C943E0011241FBECFEFD8E048
S1130070DEBFCDBF0E9440000C946F000C940000C2
S1130080259A249A2D9A2C982FEF83E294EF2150ED
S113009080409040E1F700C000002C982D982FEF8D
S11300A083E294EF215080409040E1F700C00000CB
S11300B02C9A2D982FEF83E294EF215080409040AA
S11300C0E1F700C000002C982D982FEF83E294EF05
S11300D0215080409040E1F700C00000D3CFF89455
S10500E0FFCF4C
S9030000FC
