S01600004661737450574D5F54696D6572302E73726563FC
S11300000C9434000C943E000C943E000C943E007E
S11300100C943E000C943E000C943E000C943E0064
S11300200C943E000C943E000C943E000C943E0054
S11300300C943E000C943E000C943E000C943E0044
S11300400C943E000C943E000C943E000C943E0034
S11300500C943E000C943E000C943E000C943E0024
S11300600C943E000C943E0011241FBECFEFD8E048
S1130070DEBFCDBF0E9440000C9450000C940000E1
S1130080569A84B5816084BD84B5826084BD84B58C
S1130090806884BD85B5836085BD86E687BDFFCF56
S10700A0F894FFCFFE
S9030000FC
