:100000000C9434000C9449000C9449000C94490061
:100010000C9449000C9449000C9449000C9449003C
:100020000C9449000C9449000C9449000C9449002C
:100030000C9449000C9449000C9449000C9449001C
:100040000C9449000C9449000C9449000C9449000C
:100050000C9449000C9449000C9449000C944900FC
:100060000C9449000C94490011241FBECFEFD8E036
:10007000DEBFCDBF11E0A0E0B1E0ECE3F1E002C0F3
:1000800005900D92AA30B107D9F70E947D000C941B
:100090009C000C94000084B18C6284B9089520E027
:1000A00011C0882324F495B1986095B903C095B127
:1000B000977F95B995B1906295B995B19F7D95B9A6
:1000C000880F2F5F283068F30895CF93C62F95B11E
:1000D0009B7F95B9E82FF0E0E050FF4F80810E94B0
:1000E0004F00EC2FF0E0E050FF4F80810E944F0066
:1000F00085B1846085B9CF9108950E944B00C0E01E
:100100008DECC89F812D1124869586958695282F84
:10011000220F922F990F990F920F6C2F691B0E943B
:1001200065002FEF83ED90E3215080409040E1F790
:0C01300000C00000CF5FE4CFF894FFCFC8
:0A013C003F065B4F666D7D077F6F85
:00000001FF
