S00B000050574D2E7372656325
S11300000C9434000C943E000C943E000C943E007E
S11300100C943E000C943E000C943E000C943E0064
S11300200C943E000C943E000C943E000C943E0054
S11300300C943E000C943E000C943E000C943E0044
S11300400C943E000C943E000C943E000C943E0034
S11300500C943E000C943E000C943E000C943E0024
S11300600C943E000C943E0011241FBECFEFD8E048
S1130070DEBFCDBF0E944F000C946F000C940000B3
S11300808AB180648AB984B5806884BD84B58C7F64
S1130090816084BD85B5887F826085BD08950E9496
S11300A0400080E090E008C087BDEFE1FEE43197B6
S11300B0F1F700C0000001968F3F9105A9F3A4F366
S11300C08FEF90E008C087BDEFE1FEE43197F1F7D0
S11300D000C00000019718161906ACF3E2CFF8949B
S10500E0FFCF4C
S9030000FC
