:100000000C9434000C943E000C943E000C943E0082
:100010000C943E000C943E000C943E000C943E0068
:100020000C943E000C943E000C943E000C943E0058
:100030000C943E000C943E000C943E000C943E0048
:100040000C943E000C943E000C943E000C943E0038
:100050000C943E000C943E000C943E000C943E0028
:100060000C943E000C943E0011241FBECFEFD8E04C
:10007000DEBFCDBF0E947A000C9486000C94000075
:100080008BB181608BB92FEF83E294EF21508040D8
:100090009040E1F700C000008BB18E7F8BB90895CE
:1000A0008BB182608BB92FEF87EA91E621508040B7
:1000B0009040E1F700C000008BB18D7F8BB90895AF
:1000C0008BB184608BB92FEF83E294EF2150804095
:1000D0009040E1F700C000008BB18B7F8BB9089591
:1000E0008BB18E7F8BB98BB18D7F8BB98BB18B7FB1
:1000F0008BB908958AB187608AB90E9470000E9406
:1001000040000E9460000E945000F9CFF894FFCF99
:00000001FF
