:100000000C9434000C9451000C9451000C94510049
:100010000C9451000C9451000C9451000C9451001C
:100020000C9451000C9451000C9451000C9451000C
:100030000C9451000C9451000C9451000C945100FC
:100040000C9451000C9451000C9451000C945100EC
:100050000C9451000C9451000C9451000C945100DC
:100060000C9451000C94510011241FBECFEFD8E026
:10007000DEBFCDBF11E0A0E0B1E0E2E1F2E002C0FE
:1000800005900D92A230B107D9F721E0A2E0B1E0CE
:1000900001C01D92A330B207E1F70E9453000C94F7
:1000A00007010C9400000E94B2000E945E000E94B2
:1000B000F7000E94B9000E948700FBCF87B18260E1
:1000C00087B98AB180648AB90895893119F48FE3B8
:1000D00087BD0EC0823319F48FE787BD09C08B340A
:1000E00019F48FEB87BD04C0843611F48EEF87BD01
:1000F00088B18D7F88B90E94FF00089588B18D7FF7
:1001000088B98BB18F7B8BB90E94030108958091D0
:100110000201853010F010920201809102018230BC
:1001200091F028F4882341F0813049F018C08330E1
:1001300071F0843081F013C00E947E00089589E13F
:100140000E946500089582E30E94650008958BE493
:100150000E946500089584E60E94650008950E944B
:100160007E0008958AB18D7F8AB98BB182608BB988
:10017000089589B186958170809301018091000175
:10018000813071F48091010181110AC080910201D6
:100190008F5F809302018091010180930001089597
:1001A00080910001813049F480910101813029F46E
:1001B00080910101809300010895809100018111D7
:1001C00009C080910101811105C0809101018093D6
:1001D0000001089580910001811108C08091010102
:1001E000813021F48091010180930001089584B54C
:1001F000816084BD84B58F73806884BD089585B5A2
:10020000816085BD089585B5887F85BD0895F89482
:02021000FFCF1E
:020212000101E8
:00000001FF
