S01A00004D6F64756C61725F64656C61795F6770696F2E73726563BA
S11300000C9434000C943E000C943E000C943E007E
S11300100C943E000C943E000C943E000C943E0064
S11300200C943E000C943E000C943E000C943E0054
S11300300C943E000C943E000C943E000C943E0044
S11300400C943E000C943E000C943E000C943E0034
S11300500C943E000C943E000C943E000C943E0024
S11300600C943E000C943E0011241FBECFEFD8E048
S1130070DEBFCDBF0E9446000C9482000C940000A9
S1130080259A249A239A229A219A08950E9440003C
S11300906894FF24F5F800E118E0D4E0C2E085B1EB
S11300A08F2585B985B1802785B985B1812785B923
S11300B085B18D2785B985B18C2785B980ED97E009
S11300C00E947100ECCF84B5826084BD89EF87BD46
S11300D016BC85B5816085BD85B5826085BDA99A4C
S11300E00895CF93DF93EC010E946300CE01019742
S11300F0CD2B29F0A99BFECFA99A0197D8F7DF91C0
S10B0100CF910895F894FFCF9C
S9030000FC
