:100000000C9434000C9449000C9449000C94490061
:100010000C9449000C9449000C9449000C9449003C
:100020000C9449000C9449000C9449000C9449002C
:100030000C9449000C9449000C9449000C9449001C
:100040000C9449000C9449000C9449000C9449000C
:100050000C9449000C9449000C9449000C944900FC
:100060000C9449000C94490011241FBECFEFD8E036
:10007000DEBFCDBF11E0A0E0B1E0E2EEF2E002C0F1
:1000800005900D92AC30B107D9F70E943D010C9458
:100090006F010C9400009BB1937C9BB983FD5A9A2D
:1000A00082FD5B9A81FD5C9A80FD5D9A2B9A85E0CA
:1000B0008A95F1F700002B9887EC90E00197F1F713
:1000C00000C000000895CF93C82F2C9882958F70A0
:1000D0000E944B008C2F8F700E944B00C150C23089
:1000E00030F48FE39FE10197F1F700C00000CF915A
:1000F0000895CF93C82F2C9A82958F700E944B0041
:100100008C2F8F700E944B00CF910895811102C0F7
:1001100090E001C090E4862F8F70890F80680E9464
:1001200063000895CF93DF93EC018881882331F039
:1001300021960E94790089918111FBCFDF91CF91A7
:10014000089581E00E9463000895249A239A8AB159
:100150008C638AB92FEF89EF90E021508040904066
:10016000E1F700C000002C982B9883E00E944B0020
:100170008FE19EE40197F1F700C0000083E00E9448
:100180004B0087E592E00197F1F700C0000083E0A3
:100190000E944B0087E592E00197F1F700C0000054
:1001A00082E00E944B0087E592E00197F1F700C0E2
:1001B000000088E20E94630088E00E94630081E002
:1001C0000E94630086E00E9463008CE00E9463004E
:1001D0000895CF93DF93EC018A30910568F09C017C
:1001E000ADECBCEC0E94600196958795969587953D
:1001F000969587950E94E9009E01ADECBCEC0E94AB
:1002000060019695879596958795969587959C011B
:10021000220F331F880F991F880F991F880F991F6E
:10022000820F931F9E01281B390BC901805D0E941C
:100230007900DF91CF910895ECE7F0E08081806450
:100240008083EAE7F0E08081876880830895ECE7A7
:10025000F0E09081987F8770892B8083EAE7F0E057
:10026000808180648083808186FDFDCF80917800CD
:100270002091790090E0922B08950E94A5000E94A1
:100280001C010E94A10060E080E00E94860080E0E6
:1002900091E00E94920080E00E942701EC0160E062
:1002A00081E00E948600CE010E94E9002FEF89E6DE
:1002B00098E1215080409040E1F700C00000E1CF7C
:1002C000A29FB001B39FC001A39F700D811D112497
:1002D000911DB29F700D811D1124911D0895F894F8
:0202E000FFCF4E
:0C02E2004144432056414C55453A000071
:00000001FF
