S01A00005065646573747269616E43726F7373696E672E73726563B3
S11300000C9434000C9446000C9446000C94460066
S11300100C9446000C9446000C9446000C94460044
S11300200C9446000C9446000C9446000C94460034
S11300300C9446000C9446000C9446000C94460024
S11300400C9446000C9446000C9446000C94460014
S11300500C9446000C9446000C9446000C94460004
S11300600C9446000C94460011241FBECFEFD8E038
S1130070DEBFCDBF21E0A0E0B1E001C01D92A13000
S1130080B207E1F70E94E6000C940E010C94000004
S11300908BB18E7F8BB98BB18D7F8BB98BB18B7FFD
S11300A08BB908958AB187608AB984B18E7F84B987
S11300B085B1816085B984B1866084B90895189941
S11300C004C081E080930001089580E0089585B123
S11300D0846085B985B18D7F85B92FEF83E294EF74
S11300E0215080409040E1F700C00000089585B1A0
S11300F0826085B985B18B7F85B92FEF83E294EF58
S1130100215080409040E1F700C00000089585B17F
S11301108D7F85B985B18B7F85B908958BB1816059
S11301208BB90E9467000E9487002AEA36EE86E9AE
S113013091E02150304080409040D9F700000E9467
S113014077000E9487008BB18E7F8BB908958BB1A5
S113015081608BB92FEF83E294EF2150804090406F
S1130160E1F700C000008BB18E7F8BB90E945F0065
S113017081110E948E0008958BB182608BB92FEF9C
S113018087EA91E6215080409040E1F700C00000EA
S11301908BB18D7F8BB90E945F0081110E948E000C
S11301A008958BB184608BB92FEF83E294EF2150D3
S11301B080409040E1F700C000008BB18B7F8BB989
S11301C00E945F0081110E948E0008950E945200D7
S11301D00E9448000E94A70080910001813019F418
S11301E010920001F7CF0E94BC0080910001813081
S11301F019F410920001EECF0E94D1008091000109
S1130200813019F410920001E5CF0E94BC00809166
S113021000018130F9F610920001DCCFF894FFCF91
S9030000FC
