:100000000C9434000C943E000C943E000C943E0082
:100010000C943E000C943E000C943E000C943E0068
:100020000C943E000C943E000C943E000C943E0058
:100030000C943E000C943E000C943E000C943E0048
:100040000C943E000C943E000C943E000C943E0038
:100050000C943E000C943E000C943E000C943E0028
:100060000C943E000C943E0011241FBECFEFD8E04C
:10007000DEBFCDBF0E946A000C9473000C94000098
:1000800084B1826084B916BC87EC87BD85B58C7F4E
:10009000826084BD85B5887F856085BD089530E028
:1000A00016C085B327B590E002C0959587952A952F
:1000B000E2F780FFF6CF27B581E090E002C0880F1D
:1000C000991F2A95E2F795B3892B85BB3F5F3E3494
:1000D00040F308950E94400095B182E0892785B9D8
:0A00E0000E944F00F9CFF894FFCF03
:00000001FF
