:100000000C9434000C9449000C9449000C94490061
:100010000C9449000C9449000C9449000C9449003C
:100020000C9449000C9449000C9449000C9449002C
:100030000C9449000C9449000C9449000C9449001C
:100040000C9449000C9449000C9449000C9449000C
:100050000C9449000C9449000C9449000C944900FC
:100060000C9449000C94490011241FBECFEFD8E036
:10007000DEBFCDBF11E0A0E0B1E0E4EFF1E002C0EF
:1000800005900D92A631B107D9F70E94E5000C94B6
:10009000F8000C9400009BB1937C9BB983FD5A9AA5
:1000A00082FD5B9A81FD5C9A80FD5D9A2B9A85E0CA
:1000B0008A95F1F700002B9887EC90E00197F1F713
:1000C00000C000000895CF93C82F2C9882958F70A0
:1000D0000E944B008C2F8F700E944B00C150C23089
:1000E00030F48FE39FE10197F1F700C00000CF915A
:1000F0000895CF93C82F2C9A82958F700E944B0041
:100100008C2F8F700E944B00CF910895811102C0F7
:1001100090E001C090E4862F8F70890F80680E9464
:1001200063000895CF93DF93EC018881882331F039
:1001300021960E94790089918111FBCFDF91CF91A7
:100140000895249A239A8AB18C638AB92FEF89EF94
:1001500090E0215080409040E1F700C000002C98D2
:100160002B9883E00E944B008FE19EE40197F1F70A
:1001700000C0000083E00E944B0087E592E00197F9
:10018000F1F700C0000083E00E944B0087E592E099
:100190000197F1F700C0000082E00E944B0087E564
:1001A00092E00197F1F700C0000088E20E9463002E
:1001B00088E00E94630081E00E94630086E00E9464
:1001C00063008CE00E94630008950E94A10060E03B
:1001D00080E00E94860080E091E00E94920060E052
:1001E00081E00E9486008AE091E00E949200F7CFB1
:0401F000F894FFCFB1
:1001F40048656C6C6F204C434400497420776F72DF
:060204006B7321200000D5
:00000001FF
