S012000054696D6572305F43544D2E737265639E
S11300000C9434000C943E000C943E000C943E007E
S11300100C943E000C943E000C943E000C943E0064
S11300200C943E000C943E000C943E000C943E0054
S11300300C943E000C943E000C943E000C943E0044
S11300400C943E000C943E000C943E000C943E0034
S11300500C943E000C943E000C943E000C943E0024
S11300600C943E000C943E0011241FBECFEFD8E048
S1130070DEBFCDBF0E9440000C945A000C940000D7
S1130080259A84B5826084BD88EC87BD16BC85B58D
S1130090816085BD85B5846085BDA99A20E285B15E
S11300A0822785B98CE990E0A99BFECFA99A019794
S10B00B0D9F7F5CFF894FFCF56
S9030000FC
