:100000000C9434000C943E000C943E000C943E0082
:100010000C943E000C943E000C943E000C943E0068
:100020000C943E000C943E000C943E000C94610035
:100030000C943E000C943E000C943E000C943E0048
:100040000C943E000C943E000C943E000C943E0038
:100050000C943E000C943E000C943E000C943E0028
:100060000C943E000C943E0011241FBECFEFD8E04C
:10007000DEBFCDBF0E945E000C9473000C940000A4
:100080008AB182608AB98BB182608BB988E09DE3C6
:100090009093890080938800E0E8F0E080818C7F75
:1000A0008083E1E8F0E08081807E8D608083EFE6F0
:1000B000F0E0808182608083789408950E944000FF
:1000C000FFCF1F920F920FB60F9211248F939F9321
:1000D0009BB182E089278BB99F918F910F900FBEC2
:0A00E0000F901F901895F894FFCFC1
:00000001FF
