S01500004D6F64756C61725F54696D65722E73726563DB
S11300000C9434000C943E000C943E000C943E007E
S11300100C943E000C943E000C943E000C943E0064
S11300200C943E000C943E000C943E000C943E0054
S11300300C943E000C943E000C943E000C943E0044
S11300400C943E000C943E000C943E000C943E0034
S11300500C943E000C943E000C943E000C943E0024
S11300600C943E000C943E0011241FBECFEFD8E048
S1130070DEBFCDBF0E9449000C946C000C940000BC
S11300808AB181608AB908959BB181E089278BB9CF
S113009008950E9440000E9454000E94440088EE8B
S11300A093E00E945F00F9CF89EF87BD84B58C7F10
S11300B0826084BD85B5887F836085BD089506C050
S11300C0A99BFECF85B3826085BBC9019C012150E9
S10F00D03109892BA9F70895F894FFCF9B
S9030000FC
