:100000000C9434000C943E000C943E000C943E0082
:100010000C943E000C943E000C943E000C943E0068
:100020000C943E000C943E000C943E000C943E0058
:100030000C943E000C943E000C943E000C943E0048
:100040000C943E000C943E000C943E000C943E0038
:100050000C943E000C943E000C943E000C943E0028
:100060000C943E000C943E0011241FBECFEFD8E04C
:10007000DEBFCDBF0E944A000C9456000C940000D5
:1000800084B1806284B98AB18B7F8AB98BB1846074
:100090008BB908950E9440004A9904C085B18062DE
:1000A00085B9FACF85B18F7D85B9F6CFF894FFCFAA
:00000001FF
